{
  "_format": "hh-sol-artifact-1",
  "contractName": "chai",
  "sourceName": "contracts/Chai.sol",
  "abi": [
    {
      "inputs": [],
      "stateMutability": "nonpayable",
      "type": "constructor"
    },
    {
      "inputs": [
        {
          "internalType": "string",
          "name": "name",
          "type": "string"
        },
        {
          "internalType": "string",
          "name": "message",
          "type": "string"
        }
      ],
      "name": "buyChai",
      "outputs": [],
      "stateMutability": "payable",
      "type": "function"
    },
    {
      "inputs": [
        {
          "internalType": "address payable",
          "name": "newOwner",
          "type": "address"
        }
      ],
      "name": "changeOwner",
      "outputs": [],
      "stateMutability": "nonpayable",
      "type": "function"
    },
    {
      "inputs": [],
      "name": "getMemos",
      "outputs": [
        {
          "components": [
            {
              "internalType": "string",
              "name": "name",
              "type": "string"
            },
            {
              "internalType": "string",
              "name": "message",
              "type": "string"
            },
            {
              "internalType": "uint256",
              "name": "timestamp",
              "type": "uint256"
            },
            {
              "internalType": "address",
              "name": "from",
              "type": "address"
            }
          ],
          "internalType": "struct chai.Memo[]",
          "name": "",
          "type": "tuple[]"
        }
      ],
      "stateMutability": "view",
      "type": "function"
    },
    {
      "inputs": [],
      "name": "getOwner",
      "outputs": [
        {
          "internalType": "address",
          "name": "",
          "type": "address"
        }
      ],
      "stateMutability": "view",
      "type": "function"
    },
    {
      "inputs": [],
      "name": "withdrawFunds",
      "outputs": [],
      "stateMutability": "nonpayable",
      "type": "function"
    }
  ],
  "bytecode": "0x608060405234801561001057600080fd5b5033600160006101000a81548173ffffffffffffffffffffffffffffffffffffffff021916908373ffffffffffffffffffffffffffffffffffffffff160217905550610f65806100616000396000f3fe60806040526004361061004a5760003560e01c806324600fc31461004f5780636a13d85914610066578063865c517214610082578063893d20e8146100ad578063a6f9dae1146100d8575b600080fd5b34801561005b57600080fd5b50610064610101565b005b610080600480360381019061007b91906107c8565b6101fc565b005b34801561008e57600080fd5b5061009761038d565b6040516100a49190610a45565b60405180910390f35b3480156100b957600080fd5b506100c2610570565b6040516100cf9190610a76565b60405180910390f35b3480156100e457600080fd5b506100ff60048036038101906100fa9190610acf565b61059a565b005b600160009054906101000a900473ffffffffffffffffffffffffffffffffffffffff1673ffffffffffffffffffffffffffffffffffffffff163373ffffffffffffffffffffffffffffffffffffffff1614610191576040517f08c379a000000000000000000000000000000000000000000000000000000000815260040161018890610b59565b60405180910390fd5b600160009054906101000a900473ffffffffffffffffffffffffffffffffffffffff1673ffffffffffffffffffffffffffffffffffffffff166108fc479081150290604051600060405180830381858888f193505050501580156101f9573d6000803e3d6000fd5b50565b6000341161023f576040517f08c379a000000000000000000000000000000000000000000000000000000000815260040161023690610bc5565b60405180910390fd5b600160009054906101000a900473ffffffffffffffffffffffffffffffffffffffff1673ffffffffffffffffffffffffffffffffffffffff166108fc349081150290604051600060405180830381858888f193505050501580156102a7573d6000803e3d6000fd5b50600060405180608001604052808481526020018381526020014281526020013373ffffffffffffffffffffffffffffffffffffffff168152509080600181540180825580915050600190039060005260206000209060040201600090919091909150600082015181600001908161031f9190610df1565b5060208201518160010190816103359190610df1565b506040820151816002015560608201518160030160006101000a81548173ffffffffffffffffffffffffffffffffffffffff021916908373ffffffffffffffffffffffffffffffffffffffff16021790555050505050565b60606000805480602002602001604051908101604052809291908181526020016000905b8282101561056757838290600052602060002090600402016040518060800160405290816000820180546103e490610c14565b80601f016020809104026020016040519081016040528092919081815260200182805461041090610c14565b801561045d5780601f106104325761010080835404028352916020019161045d565b820191906000526020600020905b81548152906001019060200180831161044057829003601f168201915b5050505050815260200160018201805461047690610c14565b80601f01602080910402602001604051908101604052809291908181526020018280546104a290610c14565b80156104ef5780601f106104c4576101008083540402835291602001916104ef565b820191906000526020600020905b8154815290600101906020018083116104d257829003601f168201915b50505050508152602001600282015481526020016003820160009054906101000a900473ffffffffffffffffffffffffffffffffffffffff1673ffffffffffffffffffffffffffffffffffffffff1673ffffffffffffffffffffffffffffffffffffffff1681525050815260200190600101906103b1565b50505050905090565b6000600160009054906101000a900473ffffffffffffffffffffffffffffffffffffffff16905090565b600160009054906101000a900473ffffffffffffffffffffffffffffffffffffffff1673ffffffffffffffffffffffffffffffffffffffff163373ffffffffffffffffffffffffffffffffffffffff161461062a576040517f08c379a000000000000000000000000000000000000000000000000000000000815260040161062190610f0f565b60405180910390fd5b80600160006101000a81548173ffffffffffffffffffffffffffffffffffffffff021916908373ffffffffffffffffffffffffffffffffffffffff16021790555050565b6000604051905090565b600080fd5b600080fd5b600080fd5b600080fd5b6000601f19601f8301169050919050565b7f4e487b7100000000000000000000000000000000000000000000000000000000600052604160045260246000fd5b6106d58261068c565b810181811067ffffffffffffffff821117156106f4576106f361069d565b5b80604052505050565b600061070761066e565b905061071382826106cc565b919050565b600067ffffffffffffffff8211156107335761073261069d565b5b61073c8261068c565b9050602081019050919050565b82818337600083830152505050565b600061076b61076684610718565b6106fd565b90508281526020810184848401111561078757610786610687565b5b610792848285610749565b509392505050565b600082601f8301126107af576107ae610682565b5b81356107bf848260208601610758565b91505092915050565b600080604083850312156107df576107de610678565b5b600083013567ffffffffffffffff8111156107fd576107fc61067d565b5b6108098582860161079a565b925050602083013567ffffffffffffffff81111561082a5761082961067d565b5b6108368582860161079a565b9150509250929050565b600081519050919050565b600082825260208201905092915050565b6000819050602082019050919050565b600081519050919050565b600082825260208201905092915050565b60005b838110156108a657808201518184015260208101905061088b565b60008484015250505050565b60006108bd8261086c565b6108c78185610877565b93506108d7818560208601610888565b6108e08161068c565b840191505092915050565b6000819050919050565b6108fe816108eb565b82525050565b600073ffffffffffffffffffffffffffffffffffffffff82169050919050565b600061092f82610904565b9050919050565b61093f81610924565b82525050565b6000608083016000830151848203600086015261096282826108b2565b9150506020830151848203602086015261097c82826108b2565b915050604083015161099160408601826108f5565b5060608301516109a46060860182610936565b508091505092915050565b60006109bb8383610945565b905092915050565b6000602082019050919050565b60006109db82610840565b6109e5818561084b565b9350836020820285016109f78561085c565b8060005b85811015610a335784840389528151610a1485826109af565b9450610a1f836109c3565b925060208a019950506001810190506109fb565b50829750879550505050505092915050565b60006020820190508181036000830152610a5f81846109d0565b905092915050565b610a7081610924565b82525050565b6000602082019050610a8b6000830184610a67565b92915050565b6000610a9c82610904565b9050919050565b610aac81610a91565b8114610ab757600080fd5b50565b600081359050610ac981610aa3565b92915050565b600060208284031215610ae557610ae4610678565b5b6000610af384828501610aba565b91505092915050565b600082825260208201905092915050565b7f4f6e6c79206f776e65722063616e207769746864726177000000000000000000600082015250565b6000610b43601783610afc565b9150610b4e82610b0d565b602082019050919050565b60006020820190508181036000830152610b7281610b36565b9050919050565b7f506c65617365207061792067726561746572207468616e203020657468657200600082015250565b6000610baf601f83610afc565b9150610bba82610b79565b602082019050919050565b60006020820190508181036000830152610bde81610ba2565b9050919050565b7f4e487b7100000000000000000000000000000000000000000000000000000000600052602260045260246000fd5b60006002820490506001821680610c2c57607f821691505b602082108103610c3f57610c3e610be5565b5b50919050565b60008190508160005260206000209050919050565b60006020601f8301049050919050565b600082821b905092915050565b600060088302610ca77fffffffffffffffffffffffffffffffffffffffffffffffffffffffffffffffff82610c6a565b610cb18683610c6a565b95508019841693508086168417925050509392505050565b6000819050919050565b6000610cee610ce9610ce4846108eb565b610cc9565b6108eb565b9050919050565b6000819050919050565b610d0883610cd3565b610d1c610d1482610cf5565b848454610c77565b825550505050565b600090565b610d31610d24565b610d3c818484610cff565b505050565b5b81811015610d6057610d55600082610d29565b600181019050610d42565b5050565b601f821115610da557610d7681610c45565b610d7f84610c5a565b81016020851015610d8e578190505b610da2610d9a85610c5a565b830182610d41565b50505b505050565b600082821c905092915050565b6000610dc860001984600802610daa565b1980831691505092915050565b6000610de18383610db7565b9150826002028217905092915050565b610dfa8261086c565b67ffffffffffffffff811115610e1357610e1261069d565b5b610e1d8254610c14565b610e28828285610d64565b600060209050601f831160018114610e5b5760008415610e49578287015190505b610e538582610dd5565b865550610ebb565b601f198416610e6986610c45565b60005b82811015610e9157848901518255600182019150602085019450602081019050610e6c565b86831015610eae5784890151610eaa601f891682610db7565b8355505b6001600288020188555050505b505050505050565b7f4f6e6c79206f776e65722063616e206368616e6765206f776e65720000000000600082015250565b6000610ef9601b83610afc565b9150610f0482610ec3565b602082019050919050565b60006020820190508181036000830152610f2881610eec565b905091905056fea2646970667358221220c68962273db572ba26a41f6c772058f39c3d0422a2171a125ecacb5565d9a20b64736f6c63430008110033",
  "linkReferences": {},
  "deployedLinkReferences": {}
}